:1000000019C028C027C026C025C024C023C022C0D4
:1000100021C020C01FC054C11DC01CC01BC01AC0BD
:1000200019C018C017C016C015C014C013C012C024
:1000300011C010C011241FBECFEFD2E0DEBFCDBF74
:1000400021E0A0E0B1E001C01D92AF30B207E1F7BE
:10005000AFD06EC1D5CF85B1897F85B9089585B1FF
:10006000866085B908958BB18D7F8BB908958BB16A
:1000700082608BB908958BB18F778BB908958BB15E
:1000800080688BB90895FC0186B121E030E0A901B8
:10009000062E02C0440F551F0A94E2F7282F30E0C5
:1000A0002423352302C0359527956A95E2F7808190
:1000B000821759F081818F5F81838181882331F09C
:1000C000118281E08283208308951182089561E086
:1000D0008CE091E0D8DF62E086E091E0D4DF63E07D
:1000E00089E091E0D0DF64E083E091E0CCDF65E07F
:1000F00080E091E0C8DF0895809181008770D1F49D
:1001000080910C01882339F085E090E0909389007C
:100110008093880006C088EE93E0909389008093D6
:1001200088001092850010928400E1E8F0E0808160
:10013000856080830895E1E8F0E08081887F808396
:100140000895C5DF8091000181110EC0F4DF8BB1ED
:10015000837E8BB98BB183668BB98AB18C678AB980
:1001600085B1866085B908958AB183788AB98BB1E3
:1001700083788BB980910301811104C08BB18C7796
:100180008BB903C08BB183688BB980910601811153
:100190000DC0D1DF80910901813021F485B1897FC3
:1001A00085B9089585B1866085B90895A5DF08955C
:1001B00084B1866084B987B18E7F87B98FEF88B9A3
:1001C0008AB183688AB986B1827090E095958795E7
:1001D000ECE0F1E080831182128286B1847090E0BD
:1001E0009595879595958795E6E0F1E08083118256
:1001F000128286B1887090E0959587959595879540
:1002000095958795A9E0B1E08C9311961C92119772
:1002100012961C9286B1807190E095958795959580
:1002200087959595879595958795A3E0B1E08C93F3
:1002300011961C92119712961C9286B1807290E0D2
:100240009595879595958795959587959595879596
:1002500095958795A0E0B1E08C9311961C9211972B
:1002600012961C92A1E8B0E08C9188608C93AFE666
:10027000B0E08C9182608C9388EE93E0909389003B
:10028000809388008081813011F436DF07C080912F
:100290000901813011F4DFDE01C0E1DE809103014C
:1002A000882319F0E0DEE7DE02C0E1DEE8DE7894C4
:1002B00048DF89EF90E00197F1F700C00000F8CF28
:1002C0001F920F920FB60F9211242F933F934F93CB
:1002D0005F936F937F938F939F93AF93BF93EF93AE
:1002E000FF93199B02C0B7DE01C0B9DE80910C01FB
:1002F000882339F085E090E090938900809388000E
:1003000006C088EE93E09093890080938800FF9167
:10031000EF91BF91AF919F918F917F916F915F917D
:100320004F913F912F910F900FBE0F901F901895F6
:04033000F894FFCF6F
:00000001FF
